{
    "_format": "hh-sol-artifact-1",
    "contractName": "buymeacoffee",
    "sourceName": "contracts/buymeacoffee.sol",
    "abi": [
        {
            "inputs": [],
            "stateMutability": "nonpayable",
            "type": "constructor"
        },
        {
            "anonymous": false,
            "inputs": [
                {
                    "indexed": true,
                    "internalType": "address",
                    "name": "owner",
                    "type": "address"
                },
                {
                    "indexed": false,
                    "internalType": "uint256",
                    "name": "timestamp",
                    "type": "uint256"
                },
                {
                    "indexed": false,
                    "internalType": "string",
                    "name": "name",
                    "type": "string"
                },
                {
                    "indexed": false,
                    "internalType": "string",
                    "name": "message",
                    "type": "string"
                }
            ],
            "name": "NewMemo",
            "type": "event"
        },
        {
            "inputs": [
                {
                    "internalType": "string",
                    "name": "_name",
                    "type": "string"
                },
                {
                    "internalType": "string",
                    "name": "_message",
                    "type": "string"
                }
            ],
            "name": "buycoffee",
            "outputs": [],
            "stateMutability": "payable",
            "type": "function"
        },
        {
            "inputs": [],
            "name": "getMemos",
            "outputs": [
                {
                    "components": [
                        {
                            "internalType": "address",
                            "name": "owner",
                            "type": "address"
                        },
                        {
                            "internalType": "uint256",
                            "name": "timestamp",
                            "type": "uint256"
                        },
                        {
                            "internalType": "string",
                            "name": "name",
                            "type": "string"
                        },
                        {
                            "internalType": "string",
                            "name": "message",
                            "type": "string"
                        }
                    ],
                    "internalType": "struct buymeacoffee.Memo[]",
                    "name": "",
                    "type": "tuple[]"
                }
            ],
            "stateMutability": "view",
            "type": "function"
        },
        {
            "inputs": [],
            "name": "withdrawTips",
            "outputs": [],
            "stateMutability": "nonpayable",
            "type": "function"
        }
    ],
    "bytecode": "0x608060405234801561001057600080fd5b5033600160006101000a81548173ffffffffffffffffffffffffffffffffffffffff021916908373ffffffffffffffffffffffffffffffffffffffff160217905550610d9e806100616000396000f3fe6080604052600436106100345760003560e01c80633aaa74b2146100395780635342337d14610050578063865c51721461006c575b600080fd5b34801561004557600080fd5b5061004e610097565b005b61006a6004803603810190610065919061064f565b610198565b005b34801561007857600080fd5b50610081610312565b60405161008e91906108cc565b60405180910390f35b600160009054906101000a900473ffffffffffffffffffffffffffffffffffffffff1673ffffffffffffffffffffffffffffffffffffffff163373ffffffffffffffffffffffffffffffffffffffff1614610127576040517f08c379a000000000000000000000000000000000000000000000000000000000815260040161011e9061094b565b60405180910390fd5b6000479050600160009054906101000a900473ffffffffffffffffffffffffffffffffffffffff1673ffffffffffffffffffffffffffffffffffffffff166108fc829081150290604051600060405180830381858888f19350505050158015610194573d6000803e3d6000fd5b5050565b600034116101db576040517f08c379a00000000000000000000000000000000000000000000000000000000081526004016101d2906109dd565b60405180910390fd5b600060405180608001604052803373ffffffffffffffffffffffffffffffffffffffff16815260200142815260200184815260200183815250908060018154018082558091505060019003906000526020600020906004020160009091909190915060008201518160000160006101000a81548173ffffffffffffffffffffffffffffffffffffffff021916908373ffffffffffffffffffffffffffffffffffffffff1602179055506020820151816001015560408201518160020190816102a39190610c09565b5060608201518160030190816102b99190610c09565b5050503373ffffffffffffffffffffffffffffffffffffffff167fc56140e05f516509ae28110e0f72e17558a7561630dad2647c3ae87d986e365c42848460405161030693929190610d23565b60405180910390a25050565b60606000805480602002602001604051908101604052809291908181526020016000905b828210156104ec57838290600052602060002090600402016040518060800160405290816000820160009054906101000a900473ffffffffffffffffffffffffffffffffffffffff1673ffffffffffffffffffffffffffffffffffffffff1673ffffffffffffffffffffffffffffffffffffffff168152602001600182015481526020016002820180546103c990610a2c565b80601f01602080910402602001604051908101604052809291908181526020018280546103f590610a2c565b80156104425780601f1061041757610100808354040283529160200191610442565b820191906000526020600020905b81548152906001019060200180831161042557829003601f168201915b5050505050815260200160038201805461045b90610a2c565b80601f016020809104026020016040519081016040528092919081815260200182805461048790610a2c565b80156104d45780601f106104a9576101008083540402835291602001916104d4565b820191906000526020600020905b8154815290600101906020018083116104b757829003601f168201915b50505050508152505081526020019060010190610336565b50505050905090565b6000604051905090565b600080fd5b600080fd5b600080fd5b600080fd5b6000601f19601f8301169050919050565b7f4e487b7100000000000000000000000000000000000000000000000000000000600052604160045260246000fd5b61055c82610513565b810181811067ffffffffffffffff8211171561057b5761057a610524565b5b80604052505050565b600061058e6104f5565b905061059a8282610553565b919050565b600067ffffffffffffffff8211156105ba576105b9610524565b5b6105c382610513565b9050602081019050919050565b82818337600083830152505050565b60006105f26105ed8461059f565b610584565b90508281526020810184848401111561060e5761060d61050e565b5b6106198482856105d0565b509392505050565b600082601f83011261063657610635610509565b5b81356106468482602086016105df565b91505092915050565b60008060408385031215610666576106656104ff565b5b600083013567ffffffffffffffff81111561068457610683610504565b5b61069085828601610621565b925050602083013567ffffffffffffffff8111156106b1576106b0610504565b5b6106bd85828601610621565b9150509250929050565b600081519050919050565b600082825260208201905092915050565b6000819050602082019050919050565b600073ffffffffffffffffffffffffffffffffffffffff82169050919050565b600061071e826106f3565b9050919050565b61072e81610713565b82525050565b6000819050919050565b61074781610734565b82525050565b600081519050919050565b600082825260208201905092915050565b60005b8381101561078757808201518184015260208101905061076c565b60008484015250505050565b600061079e8261074d565b6107a88185610758565b93506107b8818560208601610769565b6107c181610513565b840191505092915050565b60006080830160008301516107e46000860182610725565b5060208301516107f7602086018261073e565b506040830151848203604086015261080f8282610793565b915050606083015184820360608601526108298282610793565b9150508091505092915050565b600061084283836107cc565b905092915050565b6000602082019050919050565b6000610862826106c7565b61086c81856106d2565b93508360208202850161087e856106e3565b8060005b858110156108ba578484038952815161089b8582610836565b94506108a68361084a565b925060208a01995050600181019050610882565b50829750879550505050505092915050565b600060208201905081810360008301526108e68184610857565b905092915050565b600082825260208201905092915050565b7f4f6e6c79206f776e65722063616e207769746864726177000000000000000000600082015250565b60006109356017836108ee565b9150610940826108ff565b602082019050919050565b6000602082019050818103600083015261096481610928565b9050919050565b7f53616c6579612070616973652062696e6120636f66666565206b6974686f206d60008201527f696c750000000000000000000000000000000000000000000000000000000000602082015250565b60006109c76023836108ee565b91506109d28261096b565b604082019050919050565b600060208201905081810360008301526109f6816109ba565b9050919050565b7f4e487b7100000000000000000000000000000000000000000000000000000000600052602260045260246000fd5b60006002820490506001821680610a4457607f821691505b602082108103610a5757610a566109fd565b5b50919050565b60008190508160005260206000209050919050565b60006020601f8301049050919050565b600082821b905092915050565b600060088302610abf7fffffffffffffffffffffffffffffffffffffffffffffffffffffffffffffffff82610a82565b610ac98683610a82565b95508019841693508086168417925050509392505050565b6000819050919050565b6000610b06610b01610afc84610734565b610ae1565b610734565b9050919050565b6000819050919050565b610b2083610aeb565b610b34610b2c82610b0d565b848454610a8f565b825550505050565b600090565b610b49610b3c565b610b54818484610b17565b505050565b5b81811015610b7857610b6d600082610b41565b600181019050610b5a565b5050565b601f821115610bbd57610b8e81610a5d565b610b9784610a72565b81016020851015610ba6578190505b610bba610bb285610a72565b830182610b59565b50505b505050565b600082821c905092915050565b6000610be060001984600802610bc2565b1980831691505092915050565b6000610bf98383610bcf565b9150826002028217905092915050565b610c128261074d565b67ffffffffffffffff811115610c2b57610c2a610524565b5b610c358254610a2c565b610c40828285610b7c565b600060209050601f831160018114610c735760008415610c61578287015190505b610c6b8582610bed565b865550610cd3565b601f198416610c8186610a5d565b60005b82811015610ca957848901518255600182019150602085019450602081019050610c84565b86831015610cc65784890151610cc2601f891682610bcf565b8355505b6001600288020188555050505b505050505050565b610ce481610734565b82525050565b6000610cf58261074d565b610cff81856108ee565b9350610d0f818560208601610769565b610d1881610513565b840191505092915050565b6000606082019050610d386000830186610cdb565b8181036020830152610d4a8185610cea565b90508181036040830152610d5e8184610cea565b905094935050505056fea2646970667358221220a818336c14c90e38918afe19ab02a2bb54c67b9bed3e1b28c3c104e7ee7ddc6d64736f6c63430008110033",
    "linkReferences": {},
    "deployedLinkReferences": {}
}